:020000040000FA
:100000000C941D030C9445030C9445030C94450378
:100010000C9445030C9445030C9445030C94291649
:100020000C9445030C9445030C9445030C9403175E
:100030000C9445030C9445030C9445030C94450320
:100040000C94DF150C9445030C94D1160C94AB164C
:100050000C9445030C9445030C9445030C94450300
:100060000C9402180C94450300000000003E5B4F06
:100070005B3E3E6B4F6B3E1C3E7C3E1C183C7E3C08
:10008000181C577D571C1C5E7F5E1C00183C180016
:10009000FFE7C3E7FF0018241800FFE7DBE7FF30A6
:1000A000483A060E2629792926407F050507407F14
:1000B00005253F5A3CE73C5A7F3E1C1C08081C1C87
:1000C0003E7F14227F22145F5F005F5F06097F017D
:1000D0007F006689956A606060606094A2FFA29468
:1000E00008047E040810207E201008082A1C080836
:1000F0001C2A08081E101010100C1E0C1E0C303884
:100100003E3830060E3E0E06000000000000005F84
:1001100000000007000700147F147F14242A7F2AA0
:100120001223130864623649562050000807030062
:10013000001C2241000041221C002A1C7F1C2A08AE
:10014000083E080800807030000808080808000011
:1001500060600020100804023E5149453E00427F85
:10016000400072494949462141494D331814127FD4
:100170001027454545393C4A494931412111090774
:100180003649494936464949291E000014000000F5
:1001900040340000000814224114141414140041C7
:1001A00022140802015909063E415D594E7C121184
:1001B000127C7F494949363E414141227F414141BC
:1001C0003E7F494949417F090909013E4141517337
:1001D0007F0808087F00417F41002040413F017FA8
:1001E000081422417F404040407F021C027F7F0470
:1001F00008107F3E4141413E7F090909063E4151B9
:10020000215E7F09192946264949493203017F01A8
:10021000033F4040403F1F2040201F3F4038403FA9
:10022000631408146303047804036159494D4300BF
:100230007F4141410204081020004141417F0402F6
:10024000010204404040404000030708002054548D
:1002500078407F284444383844444428384444286B
:100260007F385454541800087E090218A4A49C78BE
:100270007F0804047800447D40002040403D007F1A
:100280001028440000417F40007C047804787C08FA
:100290000404783844444438FC18242418182424CE
:1002A00018FC7C08040408485454542404043F44B3
:1002B000243C4040207C1C2040201C3C4030403CE2
:1002C00044281028444C9090907C4464544C440042
:1002D00008364100000077000000413608000201A6
:1002E0000204023C2623263C1EA1A161123A404092
:1002F000207A38545455592155557941225454780F
:1003000042215554784020545579400C1E527212A7
:100310003955555559395454545939555454580030
:1003200000457C410002457D420001457C407D1234
:1003300011127DF0282528F07C5455450020545496
:100340007C547C0A097F4932494949323A44444441
:100350003A324A4848303A4141217A3A424020787C
:10036000009DA0A07D3D4242423D3D4040403D3C7D
:1003700024FF2424487E4943662B2FFC2F2BFF09A2
:1003800029F620C0887E0903205454794100004496
:100390007D413048484A32384040227A007A0A0A81
:1003A000727D0D19317D2629292F282629292926F4
:1003B00030484D4020380808080808080808382F39
:1003C00010C8ACBA2F102834FA00007B00000814C3
:1003D0002A142222142A14085500550055AA55AA99
:1003E00055AAFF55FF55FF000000FF00101010FF39
:1003F00000141414FF001010FF00FF1010F010F094
:10040000141414FC001414F700FF0000FF00FF1484
:1004100014F404FC141417101F10101F101F1414D0
:10042000141F00101010F0000000001F101010101A
:100430001F10101010F010000000FF10101010100E
:1004400010101010FF10000000FF140000FF00FF4C
:1004500000001F10170000FC04F4141417101714E8
:1004600014F404F40000FF00F7141414141414140A
:10047000F700F7141414171410101F101F1414147D
:10048000F4141010F010F000001F101F0000001FE7
:1004900014000000FC140000F010F01010FF10FF1A
:1004A000141414FF141010101F00000000F010FFAF
:1004B000FFFFFFFFF0F0F0F0F0FFFFFF0000000093
:1004C00000FFFF0F0F0F0F0F3844443844FC4A4A17
:1004D0004A347E02020606027E027E0263554941CC
:1004E000633844443C04407E201E2006027E020203
:1004F00099A5E7A5991C2A492A1C4C7201724C3017
:100500004A4D4D303048784830BC625A463D3E49ED
:100510004949007E0101017E2A2A2A2A2A44445F91
:10052000444440514A444040444A51400000FF0185
:1005300003E080FF000008086B6B08361236243693
:10054000060F090F060000181800000010100030F8
:1005500040FF0101001F01011E00191D1712003C80
:100560003C3C3C000000000004E010021C07123775
:1005700032292D29252B3900010310E110031D0715
:10058000062E2C292D2E2E373F0000021013800A34
:10059000298064022A040000007F2B040000009FD1
:1005A0000F0180961180FFB103012C2DB203012CA5
:1005B0002DB306012C2D012C2DB40107C003A2027E
:1005C00084C101C5C2020A00C3028A2AC4028AEE9B
:1005D000C5010E20003601C83A01050000000024C4
:1005E0000027002A00000000002300260029000048
:1005F00000000800020100000304070000000000E2
:1006000000000002010204081020408001020408DA
:10061000102001020408102000000000250028001E
:100620002B00040404040404040402020202020273
:100630000303030303035919042011241FBECFEF42
:10064000D8E0DEBFCDBF26E0ACE1B5E001C01D9231
:10065000A23EB207E1F715E0A0E0B1E0EAE4F5E47C
:1006600002C005900D92AC31B107D9F713E0CCE18F
:10067000D3E004C02197FE010E949B20CB31D1071B
:10068000C9F70E94491A0C9498220C9400008330F8
:1006900081F028F4813099F08230A9F008958730F4
:1006A000A9F08830C9F08430B1F4809180008F7D4A
:1006B00003C0809180008F7780938000089584B577
:1006C0008F7784BD089584B58F7DFBCF8091B00076
:1006D0008F778093B00008958091B0008F7DF9CF1F
:1006E000CF93DF93282F30E0F901E151FA4F849145
:1006F000F901EC5FF94FD491F901EE5DF94FC49126
:10070000CC23A1F081110E944703EC2FF0E0EE0F03
:10071000FF1FEB51FA4FA591B491EC91ED2381E0CD
:1007200090E009F480E0DF91CF91089580E090E0BF
:10073000FACF1F93CF93DF93282F30E0F901E151D7
:10074000FA4F8491F901EC5FF94FD491F901EE5D14
:10075000F94FC491CC23A9F0162F81110E944703B1
:10076000EC2FF0E0EE0FFF1FE85EF94FA591B4917A
:100770008FB7F894EC91111108C0D095DE23DC936B
:100780008FBFDF91CF911F910895DE2BF8CFCF93CC
:10079000DF9390E0FC01EC5FF94F24918E5D994F5F
:1007A000FC0184918823C9F090E0880F991FFC0117
:1007B000E552FA4FA591B491FC01E85EF94FC5915D
:1007C000D49161110DC09FB7F8948C91209582232C
:1007D0008C938881282328839FBFDF91CF91089530
:1007E000623051F49FB7F8943C91822F8095832317
:1007F0008C93E8812E2BEFCF8FB7F894EC912E2BB2
:100800002C938FBFEACFCF9380910101873021F0E5
:100810008F3F61F1CF910895E3E0F6E0C491C7FD09
:10082000F9CF61E087E00E94C703CC2309F48CC0B4
:10083000C23009F0A1C08091B100887F83608093AD
:10084000B10089EF8093B30088EE93E0A0E0B0E0C0
:100850008093CF059093D005A093D105B093D20596
:1008600080917000826080937000D4CF87E0809385
:100870000101E3E0F6E0C491CF3F61F2C13021F124
:1008800050F0C23009F43EC0C7FDC4CF61E087E03C
:100890000E94C703CDCF14BC15BC84B5826084BD53
:1008A00085B5816085BDE9E2F6E0E491F0E0EE0F08
:1008B000FF1FE85EF94F85919491EBE0F6E0E4913B
:1008C000E093CE05C0E0ADCF109280001092810081
:1008D0008091810088608093810080918100816097
:1008E00080938100E9E2F6E0E491F0E0EE0FFF1F73
:1008F000E85EF94F85919491EBE0F6E0E491E093A6
:10090000CD058FCF1092B0001092B1008091B00051
:1009100082608093B0008091B10081608093B100CB
:10092000E9E2F6E0E491F0E0EE0FFF1FE85EF94F38
:10093000859194919093CC058093CB05EBE0F6E004
:10094000E491E093CA056DCF85B5887F836085BD4E
:100950008CE787BD88EE93E0A0E0B0E08093D705F8
:100960009093D805A093D905B093DA0580916E00D5
:10097000826080936E004ECFC130F1F4809181008F
:10098000887F8160809381008FE39FE1909389004D
:100990008093880088EE93E0A0E0B0E08093D305D8
:1009A0009093D405A093D505B093D60580916F00A0
:1009B000826080936F002ECFC23021F0C1112ACF08
:1009C0008FE3C7CF8FE33ECF3FB7F8948091C60542
:1009D0009091C705A091C805B091C90526B5A89BFF
:1009E00005C02F3F19F00196A11DB11D3FBFBA2FC1
:1009F000A92F982F8827BC01CD01620F711D811D81
:100A0000911D42E0660F771F881F991F4A95D1F705
:100A100008958F929F92AF92BF92CF92DF92EF9202
:100A2000FF926B017C010E94E4044B015C01C11444
:100A3000D104E104F104B9F00E94E40468197909D1
:100A40008A099B09683E73408105910580F321E086
:100A5000C21AD108E108F10888EE880E83E0981EDA
:100A6000A11CB11CE4CFFF90EF90DF90CF90BF901E
:100A7000AF909F908F900895AF92BF92CF92DF92E8
:100A8000EF92FF920F931F93CF93DF936C017B0143
:100A90008B01040F151FEB015E01AE18BF08C017D4
:100AA000D10759F06991D601ED91FC910190F08147
:100AB000E02DC6010995892B79F7C501DF91CF910A
:100AC0001F910F91FF90EF90DF90CF90BF90AF906C
:100AD0000895FC01538D448D252F30E0842F90E044
:100AE000821B930B541710F0CF9608950197089529
:100AF000FC01918D828D981761F0A28DAE0FBF2FF2
:100B0000B11D5D968C91928D9F5F9F73928F90E047
:100B100008958FEF9FEF0895FC01918D828D9817B6
:100B200031F0828DE80FF11D858D90E008958FEFF3
:100B30009FEF0895FC01918D228D892F90E0805CBC
:100B40009F4F821B91098F73992708958BED95E034
:100B50000E949A0521E0892B09F420E0822F089554
:100B600080E090E0892B29F00E94A60581110C9469
:100B700000000895FC01A48DA80FB92FB11DA35A40
:100B8000BF4F2C91848D90E001968F739927848FAD
:100B9000A689B7892C93A089B1898C9183708064D0
:100BA0008C93938D848D981306C00288F389E02D71
:100BB00080818F7D80830895EF92FF920F931F9322
:100BC000CF93DF93EC0181E0888F9B8D8C8D981300
:100BD0001AC0E889F989808185FF15C09FB7F8940C
:100BE000EE89FF896083E889F98980818370806458
:100BF00080839FBF81E090E0DF91CF911F910F91A3
:100C0000FF90EF900895F62E0B8D10E00F5F1F4FB1
:100C10000F731127E02E8C8D8E110CC00FB607FCC0
:100C2000FACFE889F989808185FFF5CFCE010E944E
:100C3000BA05F1CFEB8DEC0FFD2FF11DE35AFF4FFD
:100C4000F0829FB7F8940B8FEA89FB8980818062DC
:100C5000CFCFCF93DF93EC01888D8823B9F0AA8999
:100C6000BB89E889F9898C9185FD03C0808186FD67
:100C70000DC00FB607FCF7CF8C9185FFF2CF8081B6
:100C800085FFEDCFCE010E94BA05E9CFDF91CF916C
:100C9000089520914305260F3327331F2132310554
:100CA000ECF420916705FC0190E080E0243069F0CD
:100CB00082E00895A09143052191AC014D5D5A4F0A
:100CC000A40FB52FB11D2C930196861798F3809130
:100CD0004305680F6093430580E0089581E008951F
:100CE00008958FEF9FEF08958FEF9FEF0895809104
:100CF0001C0590E09195819591090895CF93DF931C
:100D0000CB01EA01642F0E944906CE01DF91CF9109
:100D10000895CF93DF931F92CDB7DEB7698361E06B
:100D2000CE0101960E94490681E090E00F90DF918C
:100D3000CF910895FC01A5A1B6A18C9192A589231C
:100D40008C93A5A1B6A18C9191A5892B8C93089524
:100D5000DC019396ED91FC919497908198968C91FB
:100D6000892380830895DC019396ED91FC919497FB
:100D7000908197968C91892B80830895DC019196C0
:100D8000ED91FC919297908196968C918923808326
:100D90000895DC019196ED91FC9192979081959642
:100DA0008C91892B80830895CF92DF92EF92FF92EE
:100DB0001F93CF93DF93EC016A017B018DA9811111
:100DC00023C08F2D9927AA27BB278EBD0DB407FE00
:100DD000FDCFC701AA27BB278EBD0DB407FEFDCFEF
:100DE000BB27AF2D9E2D8D2D8EBD0DB407FEFDCFE3
:100DF000CEBC0DB407FEFDCFDF91CF911F91FF90C8
:100E0000EF90DF90CF9008958130B1F410E2CE01E1
:100E1000F7FE0FC00E94C906CE010E94B306CE01A4
:100E20000E94A806CC0CDD1CEE1CFF1C115079F7AB
:100E3000E3CF0E94BE06F0CFEF8DF8A18F2D99274A
:100E4000AA27BB278083CE010E949A06EF8DF8A1C6
:100E5000C701AA27BB278083CE010E949A06EF8D87
:100E6000F8A1BB27AF2D9E2D8D2D8083CE010E9432
:100E70009A06EF8DF8A1C082CE01DF91CF911F912C
:100E8000FF90EF90DF90CF900C949A06FF920F9313
:100E90001F93CF93DF93EC018B018DA981110EC0BD
:100EA0001EBD0DB407FEFDCF0EBD0DB407FEFDCF78
:100EB000DF91CF911F910F91FF9008958130B1F490
:100EC00090E1F92ECE0117FF0EC00E94C906CE0197
:100ED0000E94B306CE010E94A806000F111FFA94CB
:100EE000F110F0CFE5CF0E94BE06F1CFEF8DF8A153
:100EF0001083CE010E949A06EF8DF8A10083CE01E7
:100F0000DF91CF911F910F91FF900C949A060F9350
:100F10001F93CF93DF93EC01162F8DA9811109C088
:100F20006EBD0DB407FEFDCFDF91CF911F910F91E4
:100F30000895813099F408E0CE0117FF0CC00E949B
:100F4000C906CE010E94B306110FCE010E94A80669
:100F5000015091F7E9CF0E94BE06F3CFEF8DF8A1C3
:100F60006083CE01DF91CF911F910F910C949A066F
:100F7000CF93DF93EC01ED8DFE8D80819CA98923B9
:100F80008083CE010E948707ED8DFE8D80819BA915
:100F9000892B8083DF91CF9108958F929F92AF929A
:100FA000BF92CF92DF92EF92FF920F931F93CF9356
:100FB000DF93EC0189AD9AAD680F791F8BAD9CADC5
:100FC000480F591F21503109260F371F4901B12CF5
:100FD000A12CCB01B0E0A0E0DC0199278827882A6A
:100FE000992AAA2ABB2A680181E0C81AD108C40E2E
:100FF000D51EF12CE12C70E060E0BA0155274427A2
:10100000C42AD52AE62AF72A6AE2CE010E94B80746
:10101000B501A401CE010E94D4066BE2CE010E946C
:10102000B807B701A601CE010E94D4066CE2CE013A
:10103000DF91CF911F910F91FF90EF90DF90CF90B4
:10104000BF90AF909F908F900C94B807FC0185A93A
:10105000811104C091A182A19CBD8DBD08951F93F3
:10106000CF93DF93EC01162FE881F9810284F38599
:10107000E02D0995112371F06DADCE010E94B807E6
:10108000E881F9810688F789E02DCE01DF91CF91C3
:101090001F9109946EADF1CFAF92BF92CF92DF92C4
:1010A000EF92FF920F931F93CF93DF93EC0177FDA5
:1010B00038C088859985681779079CF557FD31C038
:1010C0008A859B854817590764F569017A015B0198
:1010D000E881F9810284F385E02DCE010995E8814C
:1010E000F98102A4F3A5E02D01E010E021E030E059
:1010F000A701B501CE010995B601CE010E944607B0
:10110000E881F9810688F789E02DCE01DF91CF9142
:101110001F910F91FF90EF90DF90CF90BF90AF9015
:101120000994DF91CF911F910F91FF90EF90DF9085
:10113000CF90BF90AF9008950F931F93CF93DF93FD
:101140008C01CAE0D0E02FEF3FEFA801BE0187E994
:1011500096E00E944C082496C63381E0D80799F7A0
:10116000DF91CF911F910F9108958F929F92AF922F
:10117000BF92CF92DF92EF92FF920F931F93CF9384
:10118000DF93EC0149015701E881F98102A4F3A53D
:10119000E02D09959401D8010E9478206B017C0113
:1011A000C114D104E104F10409F47DC08DA98111B9
:1011B00015C081E0C81AD108E108F1088FEFC81600
:1011C000D806E806F80609F46EC0BEBC0DB407FEEA
:1011D000FDCFAEBC0DB407FEFDCFEBCF813099F54E
:1011E00081E0C81AD108E108F1088FEFC816D806C7
:1011F000E806F80609F457C00B2D18E0CE0107FFEA
:101200001CC00E94C906CE010E94B306CE010E94F6
:10121000A806000F115091F70A2D18E0CE0107FF24
:101220000FC00E94C906CE010E94B306CE010E94E3
:10123000A806000F115091F7D3CF0E94BE06E3CF4E
:101240000E94BE06F0CFBA1016C0CC0CDD1CEE1CFE
:10125000FF1CEF8DF8A1B08281E0C81AD108E10827
:10126000F1088FEFC816D806E806F806E1F0CE01BF
:101270000E949A06F1CF81E0C81AD108E108F1086E
:101280008FEFC816D806E806F80669F0EF8DF8A1CA
:10129000B082CE010E949A06EF8DF8A1A082CE0105
:1012A0000E949A06E8CFDF91CF911F910F91FF9096
:1012B000EF90DF90CF90BF90AF909F908F90089568
:1012C0008F929F92AF92BF92CF92DF92EF92FF9256
:1012D0000F931F93CF93DF935C014B016A01E901E8
:1012E00077FD52C0DC0118968D919C9168177907A3
:1012F0000CF04AC0209709F447C037FF07C0C90166
:101300000196C80ED91ED195C195D109F5018285E6
:101310009385C816D906C4F5A6014C0F5D1F9A0126
:101320002150310937FD30C0D7FE03C0EA01D12C6E
:10133000C12C281739071CF0EC01CC19DD09D501A7
:10134000ED91FC910284F385E02DC50109957801AA
:101350008E0121E030E0A601B401C5010E94B5086C
:10136000D501ED91FC910688F789E02DC501DF914B
:10137000CF911F910F91FF90EF90DF90CF90BF9092
:10138000AF909F908F900994DF91CF911F910F9113
:10139000FF90EF90DF90CF90BF90AF909F908F9095
:1013A00008958F929F92AF92BF92CF92DF92EF9269
:1013B000FF920F931F93CF93DF935C016B014A0160
:1013C000E90157FD52C0DC011A968D919C91481796
:1013D00059070CF04AC0209709F447C037FF07C0EF
:1013E000C9010196C80ED91ED195C195D109F50143
:1013F00080859185C816D906C4F5A6014C0F5D1FDE
:101400009A012150310937FD30C0D7FE03C0EA01EF
:10141000D12CC12C281739071CF0EC01CC19DD099F
:10142000D501ED91FC910284F385E02DC50109956C
:10143000780101E010E09E01A401B601C5010E94FF
:10144000B508D501ED91FC910688F789E02DC5011D
:10145000DF91CF911F910F91FF90EF90DF90CF9090
:10146000BF90AF909F908F900994DF91CF911F9183
:101470000F91FF90EF90DF90CF90BF90AF909F9033
:101480008F9008958F929F92AF92BF92CF92DF92EA
:10149000EF92FF920F931F93CF93DF934C016B0159
:1014A0005A01E901209709F46CC00115110509F4EE
:1014B00068C037FF07C0C9010196C80ED91ED19573
:1014C000C195D109F401A085B185CA16DB060CF0DF
:1014D00058C017FF07C0C8010196A80EB91E119584
:1014E00001951109F40182859385A816B9060CF0BF
:1014F00048C0F601EC0FFD1FAF014150510957FDE7
:1015000040C0B501600F711F9B012150310937FDAB
:1015100038C0D7FE03C0EF01D12CC12CB7FE03C0E9
:101520008B01B12CA12C4A175B071CF0ED01CC19E3
:10153000DD09281739071CF08C010A191B09D40191
:10154000ED91FC910284F385E02DC40109959E0183
:10155000A501B601C4010E94B508D401ED91FC912A
:101560000688F789E02DC401DF91CF911F910F917B
:10157000FF90EF90DF90CF90BF90AF909F908F90B3
:101580000994DF91CF911F910F91FF90EF90DF9021
:10159000CF90BF90AF909F908F900895EF92FF9261
:1015A0000F931F93CF93DF9377FD32C0DC01189622
:1015B000ED91FC916E177F075CF52115310541F126
:1015C00037FF07C0F90131964E0F5F1F3195219506
:1015D0003109DC011A96ED91FC914E175F07C4F4B6
:1015E000EA01C20FD31FDE011197B7FD11C057FFEB
:1015F00003C09E0150E040E0AE17BF071CF09F0102
:10160000241B350B7801890121E030E00E94B508E8
:10161000DF91CF911F910F91FF90EF900895EF927E
:10162000FF920F931F93CF93DF9357FD31C0DC01DF
:101630001A96ED91FC914E175F0754F5211531056F
:1016400039F137FF07C0F90131966E0F7F1F3195D1
:1016500021953109DC011896ED91FC916E177F07F9
:10166000BCF4EB01C20FD31FDE011197B7FD10C010
:1016700077FF03C09E0170E060E0AE17BF071CF06B
:101680009F01261B370B780101E010E00E94B5088E
:10169000DF91CF911F910F91FF90EF9008958F925E
:1016A0009F92AF92BF92CF92DF92EF92FF920F93F1
:1016B0001F93CF93DF9347012115310509F44BC0E8
:1016C0000115110509F447C037FF07C0F90131962C
:1016D0006E0F7F1F319521953109DC011896AD9071
:1016E000BC906A157B05BCF517FF07C0F801319661
:1016F0004E0F5F1F119501951109DC011A96ED91AE
:10170000FC914E175F073CF56B01C20ED31EE6013C
:101710002197D7FD20C07A01E00EF11ED701119765
:10172000B7FD19C077FF03C0960170E060E057FF76
:1017300003C0870150E040E0CA15DB051CF09501AD
:10174000261B370BAE17BF071CF08F01041B150BB0
:1017500074010E94B508DF91CF911F910F91FF9006
:10176000EF90DF90CF90BF90AF909F908F900895B3
:10177000EF92FF920F931F93CF93DF93EC0177FDCE
:1017800022C08885998568177907ECF457FD1BC03E
:101790008A859B8548175907B4F47901E881F98156
:1017A00002A4F3A5E02D01E010E021E030E0CE013D
:1017B0000995B701CE01DF91CF911F910F91FF9055
:1017C000EF900C944607DF91CF911F910F91FF90FE
:1017D000EF900895CF93DF93EC010E9426088FA924
:1017E00087FD06C0EB8DFC8D80819AA989238083BB
:1017F000DF91CF9108950895AF92BF92CF92DF927B
:10180000EF92FF920F931F93CF93DF93BC016F5F13
:101810007F4FFC011491115008F47AC0FB01D49160
:101820007B01F2E0EF0EF11CFB0131960491C02F19
:10183000CF7787E996E00E9426088091CE0687FD43
:1018400009C0E091B206F091B30680819091C9067B
:1018500089238083E091B406F091B5068081909150
:10186000CB06892380836D2F87E996E00E94870746
:10187000E091B406F091B50680819091CA06892B5B
:101880008083F701B12CA12CD0E0AC16BD06F4F496
:101890008091CC066F01823081F48091C706882345
:1018A00061F0619171916F0187E996E00E944607AE
:1018B000EFEFAE1ABE0AF601E8CF8FEFC81AD80ACA
:1018C000649187E996E00E948707F2CF8091CE0667
:1018D00087FD09C0E091B206F091B3068081909136
:1018E000C806892B8083B7016C0F7D1F07FF93CF3C
:1018F000EB012196FB01649170E06F3F710511F4DB
:1019000064EF71E090E080E00E940905BE0183CFA2
:10191000DF91CF911F910F91FF90EF90DF90CF90CB
:10192000BF90AF9008950F931F93CF93DF93EC0177
:101930008B010E9426088FA987FD06C0EB8DFC8DC8
:1019400080819AA989238083ED8DFE8D80819CA959
:101950008923808366E3CE010E948707ED8DFE8D8B
:1019600080819BA9892B80838DA9F801823091F019
:101970006081CE010E9487078FA987FD06C0EB8D8D
:10198000FC8D808199A9892B8083DF91CF911F9154
:101990000F91089588A9882359F360817181CE0140
:1019A0000E944607E9CFCF93DF931F92CDB7DEB7F2
:1019B000FC0119826370668BDC01AD5BBF4F2C911B
:1019C00030E011968C9190E0623031F06330C9F0D4
:1019D000613081F040EC498332AF21AF94AF83AFE7
:1019E000BE016F5F7F4FCF010E94930C0F90DF917C
:1019F000CF91089540EA498334AF23AF92AF81AFCE
:101A0000EFCF40E6F8CFCF93DF931F92CDB7DEB78D
:101A1000FC0119826370668BDC01AA5BBF4F8C915D
:101A2000982F9B7FAF014C5B5F4F913031F493E077
:101A3000623008F091E0DA019C939F012D5B3F4FEB
:101A4000623009F44CC0633009F45BC0613069F165
:101A5000823021F098EC843009F046C090EC9983F4
:101A60008130D1F480E890E09387828791878087E6
:101A7000D9018C9190E092AF81AFDA018C9190E026
:101A800094AF83AFBE016F5F7F4FCF010E94930C75
:101A90000F90DF91CF910895843051F580EA90E066
:101AA0009387828780E590E0E1CF823019F098EA51
:101AB000843071F590EA99838130B1F580E890E047
:101AC0009187808793878287D9018C9190E094AF2A
:101AD00083AFDA018C9190E092AF81AFD3CF8230A7
:101AE00049F08430D9F298E09983813009F4BACF73
:101AF0008630A1F280EA90E09387828780E890E0C8
:101B0000B5CF823019F098E6843011F490E6D3CF47
:101B10009983813099F2863051F480EA90E0918780
:101B2000808780E590E0CECF8430B9F3F4CF80EAAF
:101B300090E09187808780E890E0C4CFFC0187A97E
:101B400087FD06C0A38DB48D9C9181A9892B8C93B0
:101B500008950895FC016370668B848195812681C8
:101B60003781613039F0633029F09187808733877E
:101B700022870895318720879387828708952F923F
:101B80003F924F925F926F927F928F929F92AF920D
:101B9000BF92CF92DF92EF92FF920F931F93CF935A
:101BA000DF93CDB7DEB76A970FB6F894DEBF0FBEEE
:101BB000CDBF9A8F898F7A8369834A01D22E188785
:101BC0000F833701BC2CDC0159962D913C915A971B
:101BD0002115310509F015C118968D919C91199721
:101BE000681779070CF0D7C11A968D919C91481708
:101BF00059070CF0D0C14C2C512CB6E0CB9E600D97
:101C0000711D11247C876B87161617060CF0C3C153
:101C1000EA2DF0E0FA87E98793E0EE0FFF1F9A952F
:101C2000E1F7F88BEF87CF01840F951F181619067F
:101C30000CF0B1C1A98DBA8D58968C91811104C058
:101C4000BFEABD1508F4D394A98DBA8DED91FC912E
:101C500011970284F385E02DCD010995B5E0DB9E57
:101C6000C0011124E981FA81FC83EB83312C212C02
:101C70009C0128593F4F388F2F8B4A2D50E05E8BA7
:101C80004D8BEF89F88DE20DF31D44919E828D827C
:101C9000D12CC12C69817A81620D731D7A8B698B7D
:101CA000842F90E09C8B8B8BE98DFA8DA081B18184
:101CB00040FF82C0F1E0BF126FC0AF126DC01C9632
:101CC000ED91FC912F813885A4014C0D5D1D698932
:101CD0007A89898D9A8D0995EB89FC89F595E79527
:101CE0004E2F5FEFC51AD50A6D817E818D899E8941
:101CF000680F791F7E836D8398E0C916D10481F641
:101D0000AFEF2A1A3A0AEB81FC81E40DF51DFC8342
:101D1000EB83F5E02F16310409F0B3CF2F8138851E
:101D200026153705B9F0A98DBA8DED91FC91B1E07A
:101D3000BB1257C0AB1255C069817A816B5F7F4F70
:101D40000088F189E02D830128E030E0A401898D2D
:101D50009A8D0995A98DBA8DED91FC911197068800
:101D6000F789E02DCD016A960FB6F894DEBF0FBE5D
:101D7000CDBFDF91CF911F910F91FF90EF90DF903A
:101D8000CF90BF90AF909F908F907F906F905F901B
:101D90004F903F902F9009941E96ED91FC91EF800B
:101DA000F88409851A8592014D815E816B817C8161
:101DB000898D9A8D099590CF2F8138852615370505
:101DC00009F48ACF31E0B31207C0A31205C01C96F4
:101DD000ED91FC91930178CF1E96ED91FC917301EA
:101DE000E0CF6B857C85641975090684F785E02D45
:101DF00073010F8518899201A401898D9A8D099527
:101E0000A9CFF90134969491329745915491D91AFA
:101E1000B7E0DB9E400D511D1124F901259134914D
:101E20003C8B2B8BFA0125903490FA0132967490FA
:101E300031963491398B329664903196449041E0DA
:101E40004C1518F04A1508F07FC0662D062C000CC2
:101E5000770B7C836B83842D042C000C990B9E8361
:101E60008D83A98DBA8DED91FC9111970284F38534
:101E7000E02DCD010995512CD12CC12CEA2DF0E09B
:101E8000FA87E9872B2D30E03C872B87A401440D8E
:101E9000511D47FC5A95588F4F8B69817A81660D89
:101EA000711D67FC7A957E876D877989C71608F062
:101EB00051CF2C2D30E04D815E81420F531FA985FB
:101EC000BA854A9FC0014B9F900D5A9F900D1124D7
:101ED000FC01E80DF91DF88BEF87852D612C4F89EA
:101EE000588D420F531F5E8B4D8B671408F050C006
:101EF00044244394480E877041F4C1010196EB8954
:101F0000FC89E20DF31DD4901C01D7FE19C0A98DE8
:101F1000BA8DED91FC91662D70E0B1E0BB1219C055
:101F2000AB1217C02D853E85620F731F0484F585A3
:101F3000E02D2F8138854D895E89898D9A8D09958F
:101F4000DD0C6394842DD1CF1E821D821C821B82E6
:101F500088CF4B815C81640F751FAB85BC856A9F00
:101F6000C0016B9F900D7A9F900D112469817A8139
:101F7000680F791F0684F785E02DEF80F8840985C6
:101F80001A859D014F855889898D9A8D0995D8CFDD
:101F9000570CC3948ACF6A960FB6F894DEBF0FBE73
:101FA000CDBFDF91CF911F910F91FF90EF90DF9008
:101FB000CF90BF90AF909F908F907F906F905F90E9
:101FC0004F903F902F9008958F929F92AF92CF9213
:101FD000EF92FF920F931F93CF93DF93EC01262F85
:101FE000898D9A8D009709F051C06A30D1F41D8611
:101FF0001C868D8948E0849F900111248E859F85E1
:10200000820F931F9F878E8781E090E0DF91CF91B1
:102010001F910F91FF90EF90CF90AF909F908F9076
:1020200008956D3089F3CC88AD888F898823C1F0FD
:102030008C859D8536E0C39E800D911D11244885B9
:1020400059854817590764F44E855F851D861C869F
:1020500038E0A39EC0011124840F951F9F878E87AF
:10206000EA88FB88088919894E855F856C857D859E
:10207000CE010E94BF0D2C898C859D8546E0249F52
:10208000800D911D11249D878C87BECF6A3069F425
:102090001D861C86FC013896E4912D898E859F85CE
:1020A000E29F800D911D1124ADCF6D3009F4ACCFAE
:1020B000FC0134963491631708F4A6CF3296E4916C
:1020C000E61708F4A1CFFC01329685909490462F34
:1020D000431B342F47E0349F800C911C1124F401E2
:1020E000329634913196E4913323A9F1EE2399F19C
:1020F000CC88F4013596E491AD884F89442301F1F1
:102100000E2E000CFF0BE30FF11DCE9EA001CF9E03
:10211000500D11246C857D85460F571F6885798584
:10212000641775076CF44E855F851D861C86FC015F
:102130003896E491AE9E400D511D11245F874E8765
:10214000EA88FB88088919894E855F856C857D85BD
:10215000CE010E94BF0DF4013496E4912C898C8548
:102160009D85E29F800D911D11248DCF6F927F92EE
:102170008F929F92AF92BF92CF92DF92EF92FF9297
:102180000F931F93CF93DF93EC016B015A01390139
:102190004801E881F9810284F385E02D0995E88101
:1021A000F9810288F389E02D87019301A501B60129
:1021B000CE010995A501480D591D41505109E881ED
:1021C000F9810288F389E02D9301B601CE010995CA
:1021D000E881F9810088F189E02D9401A501B6011B
:1021E000CE010995C60CD71CB60161507109E88172
:1021F000F9810088F189E02D9401A501CE010995AE
:10220000E881F9810688F789E02DCE01DF91CF9131
:102210001F910F91FF90EF90DF90CF90BF90AF9004
:102220009F908F907F906F9009946F927F928F9282
:102230009F92AF92BF92CF92DF92EF92FF920F9355
:102240001F93CF93DF935C01EB016A0149013801D1
:102250008701DC01ED91FC916217730719F5641693
:1022600075062CF0962D872D3A01C92ED82E960191
:10227000261937092F5F3F4F048CF58DE02DA30100
:10228000BE01C5010995DF91CF911F910F91FF907C
:10229000EF90DF90CF90BF90AF909F908F907F9006
:1022A0006F9008954615570591F42617370724F0C7
:1022B000892D4B01C22FD82F9E01281939092F5F74
:1022C0003F4F068CF78DE02DA601B401DACF0284D2
:1022D000F385E02D0995D501ED91FC910488F589F0
:1022E000E02D83019401A601BE01C5010995D50128
:1022F000ED91FC910688F789E02DC501DF91CF9122
:102300001F910F91FF90EF90DF90CF90BF90AF9013
:102310009F908F907F906F900994EF92FF920F9310
:102320001F93DC011A960D911C911B9718962D9105
:102330003C911997ED91FC9100A0F1A1E02D7B015A
:1023400050E040E070E060E009951F910F91FF9030
:10235000EF9008954F925F926F927F928F929F922B
:10236000AF92BF92CF92DF92EF92FF920F931F93A3
:10237000CF93DF936C012B015A0139014801DC0135
:10238000ED91FC910284F385E02D0995E201640C46
:10239000751CD601ED91FC91C615D7055CF400883B
:1023A000F189E02D87019401A501BE01C6010995BF
:1023B0002196EFCF0688F789E02DC601DF91CF91F6
:1023C0001F910F91FF90EF90DF90CF90BF90AF9053
:1023D0009F908F907F906F905F904F9009948F9215
:1023E0009F92AF92BF92CF92DF92EF92FF920F93A4
:1023F0001F93CF93DF93EC015B014A016901E881F0
:10240000F9810284F385E02D099595012C0D3D1D80
:1024100021503109E881F9810488F589E02D78019E
:102420008401A401B501CE010995E881F9810688EE
:10243000F789E02DCE01DF91CF911F910F91FF9091
:10244000EF90DF90CF90BF90AF909F908F900994C6
:102450008F929F92AF92BF92CF92DF92EF92FF92B4
:102460000F931F93CF93DF93EC015B014A01690146
:102470007801E881F9810284F385E02D0995C80C83
:10248000D91C860101501109E881F9810488F58978
:10249000E02D9501A401B501CE010995E881F981EE
:1024A0000688F789E02DCE01DF91CF911F910F9122
:1024B000FF90EF90DF90CF90BF90AF909F908F9064
:1024C0000994EF92FF920F931F93DC01ED91FC9121
:1024D00000A0F1A1E02D09951F910F91FF90EF90C1
:1024E00008950F931F93DC01ED91FC91068CF78DFD
:1024F000E02D09951F910F9108950F931F93DC0113
:10250000ED91FC91048CF58DE02D09951F910F91B3
:102510000895DC01ED91FC910084F185E02D099492
:102520002F923F924F925F926F927F928F929F92E3
:10253000AF92BF92CF92DF92EF92FF920F931F93D1
:10254000CF93DF9300D000D000D0CDB7DEB73C01F1
:102550006A013E832D83FC82EB825801A41AB50ADE
:10256000B7FE03C0B194A194B1088D809E80861AF5
:10257000970A97FE03C09194819491088A149B0452
:102580005CF0902F812F0D811E819D838E839C2D69
:102590008D2D6B01692F782F0C151D055CF09D8129
:1025A0008E817E836D83692F782F902F812F8601F6
:1025B000C92ED82E1601201A310A2B012D813E81F9
:1025C000421A530A57FE03C05194419451087101B5
:1025D00037FE03C03FEFE31AF30AF594E7948D81C9
:1025E0009E81861797075CF5A1E0B0E0BA83A983C6
:1025F000C016D1064CF1D301ED91FC910484F58510
:10260000E02D2B813C81A8016D817E818A149B0481
:102610001CF04D815E81B801C3010995E418F508ED
:10262000F7FE0AC02D813E8189819A81280F391FCA
:102630003E832D83E20CF31C0F5F1F4FD9CF2FEF8A
:102640003FEF3A832983D4CF26960FB6F894DEBFA6
:102650000FBECDBFDF91CF911F910F91FF90EF90F3
:10266000DF90CF90BF90AF909F908F907F906F90B2
:102670005F904F903F902F900895089590E080E0F4
:102680000895FB0101900020E9F73197AF01461B47
:10269000570BDC01ED91FC910280F381E02D099450
:1026A000BC0187E996E00C9441138F929F92AF9200
:1026B000BF92CF92DF92EF92FF920F931F93CF932F
:1026C000DF9370E060E087E996E00E948D118FEF64
:1026D0009FEF9093AA068093A9069093A8068093F3
:1026E000A70682E08093AB068093AC0684E090E07E
:1026F0009093A4068093A3068AE090E09093A606A8
:102700008093A5068AE591E00E94501320919F06D0
:102710003091A00600EE1FEF4EE150E070E060E067
:1027200087E996E00E94D1090FE716E088E2E82EDB
:10273000F12CD0E0C0E094E1A92EB12CCC24CA94B5
:10274000DC2C30EE832E37E0932EB092A406A092BC
:10275000A306F092A606E092A5068091BF0590918F
:10276000C0058C179D0739F59092AA068092A9069C
:102770009092A8068092A706F80144815581608155
:10278000718187E996E00E943C052196F4E1EF0E05
:10279000F11C0A5F1F4FC430D105B9F6DF91CF910C
:1027A0001F910F91FF90EF90DF90CF90BF90AF906F
:1027B0009F908F900895D092AA06C092A906D092B9
:1027C000A806C092A706D8CFCF93DF93BC018BEDAC
:1027D00095E00E944113EC0168E671E08BED95E015
:1027E0000E9441138C0F9D1FDF91CF9108950E948D
:1027F00083220F931F93CF93DF93EC0188819981FC
:10280000009759F02A813B812617370730F081E085
:10281000DF91CF911F910F9108958B016F5F7F4FD3
:102820000E94C621009759F0998388831B830A83ED
:102830002C813D81232B59F7FC011082E8CF80E0E9
:10284000E7CF0F931F93CF93DF938C01EC01099097
:102850000020E9F72197C81BD90BBE0189E796E054
:102860000E94F9132091790630917A06811117C0E0
:102870002115310519F0C9010E943D2110927A06F7
:102880001092790610927E0610927D0610927C06B8
:1028900010927B06DF91CF911F910F910895D093F5
:1028A0007E06C0937D06B801C901DF91CF911F91CB
:1028B0000F910C949122CF92DF92EF92FF920F939F
:1028C0001F93CF93DF93EC016A017B01C114D10404
:1028D000E104F10439F4C12C48E4D42E48EEE42E8E
:1028E000FF24F394FE01FF96C082D182E282F3823C
:1028F00081E28DAF80E28EAF369610818FA987FD81
:1029000007C061E00E94C70361E08FA90E9499039C
:1029100061E088AD0E94C70361E088AD0E94990321
:102920008DA9811182C040E052E16AE770E0C416CF
:10293000D506E606F70640F47695679557954795D0
:102940008F5F8630A1F787E0212F2C702065982FAC
:102950009695922B99A3809581708AA3812F90E000
:10296000B0E0A0E08BA39CA3ADA3BEA31FB7F894D7
:1029700080918D05811127C0ECE2F6E08491EEE0B4
:10298000F6E09491E82FF0E0EE0FFF1FE552FA4FCA
:10299000A591B491EC91E92321F461E08AE00E94D1
:1029A000990361E08AE00E94C7038CB580618CBD09
:1029B0008CB580648CBD61E08DE00E94C70361E04E
:1029C0008BE00E94C70380918D058F5F80938D05FA
:1029D0001FBF8EA987FD75C061E00E94C70361E03B
:1029E0008EA90E94990364E670E080E090E00E9466
:1029F000090560E08EA90E94990364E670E080E01A
:102A000090E00E94090561E08EA90E94990368EC9C
:102A100070E080E090E0DF91CF911F910F91FF90E7
:102A2000EF90DF90CF900C94090502E216E0F12CB4
:102A30008130B9F461E08AA50E94C70360E08AA5ED
:102A40000E94990361E08CA50E94C70360E08CA5F9
:102A50000E9499038BA587FDBCCF60E00E94C7034D
:102A6000B8CFF8018491E82FF0E0EE0FFF1FE85E89
:102A7000F94F859194912F8D38A12817390741F48A
:102A800061E08F2D0E94C70360E08F2D0E949903A3
:102A9000F3940F5F1F4FF4E1FF12E3CF61E08EA5C7
:102AA0000E94C70361E08EA50E9499038FA587FD50
:102AB00090CF61E00E94C70361E08FA50E94990357
:102AC00088CFDF91CF911F910F91FF90EF90DF9012
:102AD000CF9008951F93CF93DF9385ED8093BC0033
:102AE00080911F0590912005A0912105B0912205AC
:102AF0000796A11DB11D23E0B695A79597958795DB
:102B00002A95D1F72091BC0024FD03C010926705DF
:102B100052C040911F055091200560912105709190
:102B20002205452B462B472B69F30097A105B105DC
:102B300041F02AE22A95F1F700C00197A109B109F5
:102B4000E1CF80911E05C1E0C0931D05882399F156
:102B5000D091B8001091BA008091BC008A7B80931C
:102B6000BC0060E082E10E94990360E083E10E9482
:102B7000990310926705C09369051092680561E09A
:102B800082E10E94990361E083E10E9499038091B0
:102B9000B9008E7F8093B9008091B9008D7F8093BA
:102BA000B90088E48093B80085E48093BC0010935A
:102BB000BA00D093B800DF91CF911F9108951F9272
:102BC0000F920FB60F9211242F933F938F939F93E1
:102BD000AF93BF938091C2059091C305A091C405A6
:102BE000B091C5053091C10523E0230F2D3758F56D
:102BF0000196A11DB11D2093C1058093C20590933C
:102C0000C305A093C405B093C5058091C6059091F6
:102C1000C705A091C805B091C9050196A11DB11DB8
:102C20008093C6059093C705A093C805B093C905C6
:102C3000BF91AF919F918F913F912F910F900FBEB8
:102C40000F901F90189526E8230F0296A11DB11D25
:102C5000D2CF1F920F920FB60F9211242F933F9352
:102C60004F935F936F937F938F939F93AF93BF9394
:102C7000EF93FF938091CF059091D005A091D1055E
:102C8000B091D205892B8A2B8B2BD1F19091CA055B
:102C9000E091CB05F091CC058081892780838091DC
:102CA000CF059091D005A091D105B091D20518160D
:102CB00019061A061B069CF48091CF059091D00549
:102CC000A091D105B091D2050197A109B1098093D6
:102CD000CF059093D005A093D105B093D205FF9175
:102CE000EF91BF91AF919F918F917F916F915F9184
:102CF0004F913F912F910F900FBE0F901F901895FD
:102D000080910101E3E0F6E0E4919FEF90930101EF
:102D1000E13051F030F0E23069F060E00E94990358
:102D2000DECF10926E00F9CF90916F009D7F90934F
:102D30006F00F3CF909170009D7F9093700091E0B1
:102D40009093B0009091B100987F94609093B100FF
:102D50001092B300E2CF1F920F920FB60F92112480
:102D60002F933F934F935F936F937F938F939F9393
:102D7000AF93BF93EF93FF938BED95E00E94BA055D
:102D8000FF91EF91BF91AF919F918F917F916F9143
:102D90005F914F913F912F910F900FBE0F901F9019
:102DA00018951F920F920FB60F9211242F938F93A5
:102DB0009F93EF93FF93E091EB05F091EC058081F9
:102DC000E091F105F091F20582FD1BC090818091A8
:102DD000F4058F5F8F732091F505821741F0E09124
:102DE000F405F0E0E552FA4F958F8093F405FF91DA
:102DF000EF919F918F912F910F900FBE0F901F9089
:102E000018958081F4CF1F920F920FB60F92112464
:102E10002F933F934F935F936F937F938F939F93E2
:102E2000AF93BF93CF93EF93FF93809100010E94E4
:102E30007003C82F80939B0580919A058823F9F031
:102E40008091990591E0980F90939905811117C091
:102E500060919C058AE00E94990360E08CE00E94EA
:102E6000990310929A0581E080939E0580919705C1
:102E7000909198050196909398058093970580917D
:102E80009905883010F01092990580919E0588234D
:102E900009F474C0CC2329F0809196058F5F80934C
:102EA00096058091940590919505C91709F478C00D
:102EB0009BE0803508F09DE1890F80939405C093D5
:102EC000950520919405203A08F458C08091920508
:102ED000909193059695879590939305809392058D
:102EE00030919605353028F0986090939305809343
:102EF0009205205A209394051092960580919D0585
:102F0000882309F46EC0809191058F5F80939105AD
:102F10008C30A0F14091920550919305942F9F73AE
:102F2000E8E0F1E0DF0180E02D91921721F08F5F62
:102F30008031D1F780E090E1899F9001112486E0F3
:102F4000569547958A95E1F780E09191491721F0D0
:102F50008F5F8031D1F780E0822B9091BD05911178
:102F600023C0809390059CEF980F9B31E8F010925E
:102F70009D0580918F058F5F80938F05FF91EF9165
:102F8000CF91BF91AF919F918F917F916F915F9101
:102F90004F913F912F910F900FBE0F901F9018955A
:102FA0008C5E809394058DCFE091BD0591E09E0FDE
:102FB0009093BD05F0E0E156FA4F80839091BD05F6
:102FC00080919005981750F010929D0580918E0584
:102FD0008F5F80938E0581E08093BE0510929105EE
:102FE000CDCF809192059091930588339B4031F627
:102FF00081E080939D05109291051092BD0510927D
:10300000BE05BCCF1F920F920FB60F9211242F93C3
:103010003F934F935F936F937F938F939F93AF9360
:10302000BF93EF93FF938091B900887F803609F4B6
:103030004AC0F0F5883209F4A5C018F5803109F4CA
:1030400099C0B8F4882309F4F5C0883009F492C017
:10305000FF91EF91BF91AF919F918F917F916F9170
:103060005F914F913F912F910F900FBE0F901F9046
:103070001895883109F486C0803251F7809366052F
:1030800014C0803409F49BC040F48033B9F3883312
:10309000F9F68093660585ECAEC0803509F483C0EF
:1030A000883509F494C0883499F60E946A15D0CF07
:1030B000883909F48AC038F5883729F050F4883601
:1030C00011F0803729F683E080936705109265053B
:1030D00055C0883809F479C0803919F0803809F072
:1030E000B7CF80916505803208F06FC0E09165052B
:1030F00081E08E0F809365058091BB00F0E0EB5B73
:10310000FA4F80833BC0803B39F0D0F4803A09F419
:1031100077C0883A09F09CCF84E0809367051092CD
:10312000440510924305F0E0E0E0099580914305E5
:1031300081110FC081E0809343051092230509C0DF
:10314000803C09F4A8CF883C09F4A5CF883B09F05E
:103150007FCFE091440581E08E0F80934405F0E03D
:10316000ED5DFA4F80818093BB0090914405809182
:10317000430529C080918C058093BB0085EC80932A
:10318000BC0066CF90918B0580918A05981758F501
:10319000E0918B0581E08E0F80938B05F0E0E6597E
:1031A000FA4F8081E9CFE0918B0581E08E0F80930B
:1031B0008B058091BB00F0E0E659FA4F8083909137
:1031C0008B0580918A059817C8F285E8D8CFE091E1
:1031D0008B0581E08E0F80938B058091BB00F0E022
:1031E000E659FA4F80838091690581115ECF81E0B5
:1031F0008093680584EA8093BC001092670528CF0D
:1032000085EC8093BC001092670580916505803243
:1032100030F4E0916505F0E0EB5BFA4F10826091CD
:10322000650570E085E495E0F0E0E0E00995109236
:1032300065050ECF1092660538CFEF92FF920F937F
:103240001F93CF93DF93EC017B01198218821B82BD
:103250001A821D821C82FB0101900020E9F7319740
:103260008F01061B170BB8010E94F91328813981C1
:10327000811113C02115310519F0C9010E943D21AA
:10328000198218821D821C821B821A82DF91CF91C3
:103290001F910F91FF90EF9008951D830C83B7014C
:1032A000C901DF91CF911F910F91FF90EF900C9486
:1032B0009122EBEDF5E01382128288EE93E0A0E01C
:1032C000B0E084839583A683B7838CE191E09183FA
:1032D000808385EC90E09587848784EC90E09787E5
:1032E000868780EC90E0918B808B81EC90E0938BD3
:1032F000828B82EC90E0958B848B86EC90E0978BB0
:10330000868B118E128E138E148EA7E9B6E013965B
:103310001C921E92129720E830E015963C932E9353
:10332000149780EA90E017969C938E9316971996BF
:103330003C932E9318971B969C938E931A975696B0
:103340001C9256971D961C921E921C971F961C92BB
:103350001E921E9781E055968C93559754968C93A8
:1033600054972FEF3FEF53963C932E9352975196DD
:103370003C932E93509757968C93579758961C9240
:1033800058975A961C921E925997D5961C92D5978B
:1033900088E0D6968C93D6978AE0D7968C93D79769
:1033A00089E0D8968C93D897DA961C921E92D9977A
:1033B000DC961C921E92DB97DD961C92DD97DE96C2
:1033C0001C92DE971092D6061092D7061092D8065D
:1033D0001092D90688E796E090969C938E935F971B
:1033E000EBE2F6E0E491F0E0EE0FFF1FE85EF94F4C
:1033F000859194915E969C938E935D97EDE0F6E0B7
:103400008491D3968C93D397ECE2F6E0E491F0E0CC
:10341000EE0FFF1FE85EF94F259134915C963C93C7
:103420002E935B97EEE0F6E0E491D196EC93D19782
:10343000E095D296EC93D297E82FE095D496EC9352
:10344000D4971092DA061092DB061092DC068EE218
:1034500091E08D939C936BE671E08FE796E00E947C
:103460001D1960E771E085E896E00E941D196BE781
:1034700071E08BE896E00E941D1964E871E081E933
:1034800096E00E941D196AE671E089E796E00C94C7
:103490001D19CF93DF93CDB7DEB7A6970FB6F8947B
:1034A000DEBF0FBECDBF789484B5826084BD84B585
:1034B000816084BD85B5826085BD85B5816085BD2F
:1034C00080916E00816080936E00109281008091E7
:1034D000810082608093810080918100816080936F
:1034E0008100809180008160809380008091B10094
:1034F00084608093B1008091B00081608093B000BF
:1035000080917A00846080937A0080917A00826052
:1035100080937A0080917A00816080937A00809114
:103520007A00806880937A001092C10040E050E0F9
:10353000BA0187E996E00E945B1480EA95E00E9458
:10354000FC0B83E995E00E94FC0B88E695E00E9465
:10355000FC0B80EC8983BE016F5F7F4F87E996E0AB
:103560000E94930C12E01093DD0660E087E996E07C
:103570000E94030D70E060E087E996E00E948D11E3
:1035800063E087E996E00E94030D01E000939C054B
:103590008CE0809300011092800089E0809381008C
:1035A00084EF91E0909389008093880080916F0070
:1035B000826080936F0061E08CE00E94C70360E04E
:1035C000809100010E94C70361E08AE00E94C70366
:1035D00060919C058AE00E949903E091EB05F091CF
:1035E000EC051083E091E705F091E8051082E09189
:1035F000E905F091EA058FEC80831092F305E091E4
:10360000EF05F091F00586E08083E091ED05F09103
:10361000EE05808180618083E091ED05F091EE05FB
:10362000808188608083E091ED05F091EE058081D6
:1036300080688083E091ED05F091EE0580818F7DBB
:10364000808361E08EE00E94C70361E087E00E9412
:10365000C70361E08EE00E94C70380E991E00E9409
:10366000E41361E08EE00E94990361E087E00E942C
:1036700099038DEA91E00E94E41381EC91E00E94AD
:10368000E41381EE91E00E94E41383E092E00E9453
:10369000E41386E292E00E94E4138BE492E00E943D
:1036A000E41368E671E08BED95E00E94411386E734
:1036B00092E00E94E4138DE892E00E94E4138FEA06
:1036C00092E00E94E41381ED92E00E94E41383EF04
:1036D00092E00E94E41388E193E00E94E41368E61C
:1036E00071E08BED95E00E94411385E493E00E9428
:1036F000E4138FE593E00E94E41387E893E00E94CF
:10370000E41389EA93E00E94E4138CEC93E00E94B6
:10371000E41381EF93E00E94E41368E671E08BED1F
:1037200095E00E94411382E294E00E94E4138AE350
:1037300094E00E94E4138DE594E00E94E4138FE787
:1037400094E00E94E4138EE994E00E94E41383EC79
:1037500094E00E94E41364EF71E080E090E00E9446
:10376000090560E08EE00E94990360E087E00E9416
:10377000990362E084E00E94C70362E085E00E9452
:10378000C70362E086E00E94C70370E060E087E95B
:1037900096E00E948D1180EE97E09093AA068093A8
:1037A000A9069093A8068093A7060093AB06009302
:1037B000AC0682E0E82EF12CF092A406E092A3067B
:1037C00088E290E09093A6068093A5068FEE94E0A1
:1037D0000E94501370E060E087E996E00E948D112E
:1037E00080E098EF9093AA068093A9069093A8068C
:1037F0008093A7061093AB061093AC06F092A40634
:10380000E092A3068CE390E09093A6068093A50631
:1038100087E095E00E945013B12CA12C1AA219A2A6
:1038200066E470E080E090E00E94090529A13AA1D9
:103830003093A4062093A30684E690E09093A60616
:103840008093A5069501225E3F4F3EA32DA387E9F5
:1038500096E00E94EA0B0FE118EF25E130E04EE61A
:1038600050E06DA17EA187E996E00E94CE0ABAE001
:103870004B2E512C81E090E098A38F8FD12CC12C3E
:103880001AE0E12EF12C2CEE3FEF3CA32BA307EF27
:10389000202E33243A943FEFC31AD30A8F8D98A178
:1038A000029698A38F8F280E391EEC14FD040CF499
:1038B0003DC33701660C771C9FEF691A790AB60180
:1038C000625E7F4F6A0D7B1D0FE118EF9301A8E741
:1038D0008A2E912C8E189F08A40187E996E00E94F9
:1038E000CE0A6EE170E06C197D096A0D7B1D9301B3
:1038F000A40187E996E00E94CE0A4E145F0401F10C
:103900006DA17EA1640D751D0FE118EF6F8C78A07D
:1039100022E0621A71089301E9E78E2E912C8C182F
:103920009D08A40187E996E00E94CE0A6DA17EA1C0
:10393000641975099301A40187E996E00E94CE0AF3
:10394000CE14DF040CF0F6C2C70137FC09C00197A2
:103950002BA13CA12E5F3F4F3CA32BA3220E331E75
:1039600027017C0198CF883B904F61F48981803397
:1039700009F0C0C261E08EE00E9499038BE691E0FD
:103980000E94211484E00E947003892BA9F4809185
:10399000BF059091C005039664E070E00E9464202A
:1039A0009093C0058093BF050E9455136CE271E0AF
:1039B00080E090E00E94090585E00E947003892B59
:1039C000A9F48091BF059091C005019664E070E074
:1039D0000E9464209093C0058093BF050E945513F8
:1039E0006CE271E080E090E00E94090586E00E94B0
:1039F0007003892B09F071C270E060E087E996E0FE
:103A00000E948D115092AA064092A9065092A806D3
:103A10004092A70682E08093AB068093AC0684E1D7
:103A200090E09093A4068093A30622E330E03093C5
:103A3000A6062093A50682E195E00E94501380E13E
:103A400095E00E94501362E370E080E090E00E94F5
:103A5000090580E195E00E94501362E370E080E088
:103A600090E00E94090570E060E087E996E00E941E
:103A70008D1181E08093AB068093AC068091BF05E9
:103A80009091C005892B09F07CC0F092AA06E092C3
:103A9000A906F092A806E092A7061093A406009348
:103AA000A3061093A6060093A5068DEA91E00E9456
:103AB00050131093A4060093A3067092A60660927A
:103AC000A50680EE97E09093AA068093A9069093AE
:103AD000A8068093A70681EC91E00E9450131093F2
:103AE000A4060093A306B092A606A092A50681EEB6
:103AF00091E00E94501386E490E00E949C0810938D
:103B0000A4060093A3068AE590E09093A60680930E
:103B1000A50683E092E00E9450131093A406009340
:103B2000A3069092A6068092A50686E292E00E94E5
:103B3000501388E790E00E949C081093A40600931D
:103B4000A3063092A6062092A506D092AA06C0929D
:103B5000A906D092A806C092A7068BE492E00E9424
:103B6000501361E08EE00E9499030E94030464EF09
:103B700071E080E090E00E94090560E08EE00E9424
:103B800099038091BF059091C005019709F081C00C
:103B9000F092AA06E092A906F092A806E092A70683
:103BA00081E08093AB068093AC061093A40600934B
:103BB000A3061093A6060093A50686E792E00E944E
:103BC00050131093A4060093A3067092A606609269
:103BD000A5068FE198EF9093AA068093A90690938B
:103BE000A8068093A7068DE892E00E9450131093D8
:103BF000A4060093A306B092A606A092A5068FEA9B
:103C000092E00E94501386E490E00E949C0810937A
:103C1000A4060093A3068AE590E09093A6068093FD
:103C2000A50681ED92E00E9450131093A406009324
:103C3000A3069092A6068092A50683EF92E00E94CA
:103C4000501388E790E00E949C081093A40600930C
:103C5000A3063092A6062092A506D092AA06C0928C
:103C6000A906D092A806C092A70688E193E00E9418
:103C7000501361E08EE00E9499030E94030464EFF8
:103C800071E080E090E00E94090560E08EE00E9413
:103C900099038091BF059091C005029709F081C0FA
:103CA000F092AA06E092A906F092A806E092A70672
:103CB00081E08093AB068093AC061093A40600933A
:103CC000A3061093A6060093A50685E493E00E9440
:103CD00050131093A4060093A3067092A606609258
:103CE000A5068FE190E09093AA068093A906909391
:103CF000A8068093A7068FE593E00E9450131093C7
:103D0000A4060093A306B092A606A092A50687E893
:103D100093E00E94501386E490E00E949C08109368
:103D2000A4060093A3068AE590E09093A6068093EC
:103D3000A50689EA93E00E9450131093A40600930D
:103D4000A3069092A6068092A5068CEC93E00E94B2
:103D5000501388E790E00E949C081093A4060093FB
:103D6000A3063092A6062092A506D092AA06C0927B
:103D7000A906D092A806C092A70681EF93E00E9400
:103D8000501361E08EE00E9499030E94030464EFE7
:103D900071E080E090E00E94090560E08EE00E9402
:103DA00099038091BF059091C005039709F08DC0DC
:103DB000F092AA06E092A906F092A806E092A70661
:103DC00081E08093AB068093AC061093A406009329
:103DD000A3061093A6060093A50682E294E00E9433
:103DE00050131093A4060093A3067092A606609247
:103DF000A5065092AA064092A9065092A8064092A3
:103E0000A7068AE394E00E9450131093A40600933F
:103E1000A306B092A606A092A5068DE594E00E94A6
:103E2000501386E490E00E949C088AE590E00E948E
:103E30009C081093A4060093A3069092A606809275
:103E4000A506D092AA06C092A906D092A806C09252
:103E5000A70683EC94E00E94501361E08EE00E947C
:103E6000990364E670E080E090E00E94090560E05C
:103E70008EE00E94990364E670E080E090E00E948A
:103E8000090561E08EE00E94990364E670E080E03D
:103E900090E00E94090560E08EE00E94990364E6CC
:103EA00070E080E090E00E94090561E08EE00E94F1
:103EB00099030E94030464EF71E080E090E00E94A7
:103EC000090560E08EE00E9499036CE271E080E0F9
:103ED00090E00E9409050E94551380E090E0892B34
:103EE00009F459C00E94A605882309F445C00E9420
:103EF000000040C0813339F461E08EE00E949903F4
:103F000080E791E03DCD823339F461E08EE00E949C
:103F100099038BE791E034CD833309F033CD61E031
:103F20008EE00E94990384E891E02ACD4E145F044C
:103F300009F0E6CC87E996E00E949E0D89A19AA13E
:103F40000A969AA389A398E2A90EB11C28E7A216A3
:103F5000B10409F065CC64E670E080E090E00E9476
:103F600009050E945513EE24EA94FE2C60EE462EBD
:103F700055245A940AE010E088E2682E712C9CE3E4
:103F8000A92EB12C2EE6822E912CC12C38EFD32EE7
:103F90004CE8242E312C80919E05811105C081E0D2
:103FA00080939E0510929D058091BE05882309F49B
:103FB000E9CC4091BD0543504E3108F04EE150E050
:103FC00060EA75E0CE0101960E9488221092BE053B
:103FD0002091BD05EFE9F5E08FEF9FEF215008F448
:103FE000C2CC31918327082E8295807F8025092EAF
:103FF000982F82958F700826869598278927880F95
:10400000880F880F8025EACFCF93DF9380917906C0
:1040100090917A06009711F00E943D21C7E9D6E001
:10402000269788819981009711F00E943D2186E0B2
:10403000CF37D807A9F7DF91CF9108952F923F92FC
:104040004F925F926F927F928F929F92AF92BF92A8
:10405000CF92DF92EF92FF920F931F93CF93DF9354
:10406000CDB7DEB7CA1BDB0B0FB6F894DEBF0FBEB1
:10407000CDBF09942A88398848885F846E847D84FE
:104080008C849B84AA84B984C884DF80EE80FD8000
:104090000C811B81AA81B981CE0FD11D0FB6F89476
:1040A000DEBF0FBECDBFED010895A29FB001B39F4B
:1040B000C001A39F700D811D1124911DB29F700D31
:1040C000811D1124911D089597FB072E16F400946D
:1040D00007D077FD09D00E94872007FC05D03EF469
:1040E000909581959F4F0895709561957F4F0895A4
:1040F0000E945520332312F48A1B9B0B0C948220C0
:104100000E945520B7FF0895821B930B0895AA1BA8
:10411000BB1B51E107C0AA1FBB1FA617B70710F0B2
:10412000A61BB70B881F991F5A95A9F780959095E4
:10413000BC01CD010895EE0FFF1F0590F491E02D15
:1041400009940F931F93CF93DF938230910510F45E
:1041500082E090E0E091E006F091E10630E020E0BE
:10416000B0E0A0E0309799F42115310509F44AC078
:10417000281B390B24303105D8F58A819B816115C4
:10418000710589F1FB0193838283FE0111C0408197
:1041900051810281138148175907E0F048175907E8
:1041A00099F4109761F012960C93129713961C9342
:1041B0003296CF01DF91CF911F910F910895009317
:1041C000E0061093E106F4CF2115310551F04217B6
:1041D000530738F0A901DB019A01BD01DF01F801A5
:1041E000C1CFEF01F9CF9093E1068093E006CDCFE8
:1041F000FE01E20FF31F819391932250310939831D
:104200002883D7CF2091DE063091DF06232B41F49F
:1042100020910401309105013093DF062093DE06E2
:1042200020910201309103012115310541F42DB790
:104230003EB74091060150910701241B350BE091D8
:10424000DE06F091DF06E217F307A0F42E1B3F0B0A
:104250002817390778F0AC014E5F5F4F24173507F8
:1042600048F04E0F5F1F5093DF064093DE068193A8
:1042700091939FCFF0E0E0E09CCFCF93DF93009746
:10428000E9F0FC01329713821282A091E006B0910E
:10429000E106ED0130E020E01097A1F420813181AA
:1042A000820F931F2091DE063091DF062817390711
:1042B00009F061C0F093DF06E093DE06DF91CF9155
:1042C0000895EA01CE17DF07E8F54A815B819E0178
:1042D00041155105B1F7E901FB83EA8349915991F1
:1042E000C40FD51FEC17FD0761F480819181029600
:1042F000840F951FE90199838883828193819B8331
:104300008A83F0E0E0E012968D919C9113970097DC
:10431000B9F52D913C911197CD010296820F931F13
:104320002091DE063091DF062817390739F63097DD
:1043300051F51092E1061092E006B093DF06A093CB
:10434000DE06BCCFD383C28340815181840F951F89
:10435000C817D90761F44E5F5F4F88819981480F74
:10436000591F518340838A819B81938382832115C6
:10437000310509F0B0CFF093E106E093E0069ECF5F
:10438000FD01DC01C0CF13821282D7CFB0E0A0E0E4
:10439000ECECF1E20C9420208C01009751F4CB015D
:1043A0000E94A1208C01C801CDB7DEB7E0E10C94DA
:1043B0003C20FC01E60FF71F9C0122503109E21757
:1043C000F30708F49DC0D901CD91DC911197C61770
:1043D000D70798F0C530D10530F3CE010497861782
:1043E000970708F3C61BD70B2297C193D1936D9300
:1043F0007C93CF010E943D21D6CF5B01AC1ABD0A50
:104400004C018C0E9D1EA091E006B091E106512C4E
:10441000412CF12CE12C109731F58091DE06909122
:10442000DF068815990509F05CC04616570608F0A6
:1044300058C08091020190910301009741F48DB71B
:104440009EB74091060150910701841B950BE81718
:10445000F90708F055C0F093DF06E093DE06F90196
:1044600071836083A0CF8D919C91119712966C906F
:10447000129713967C901397A815B90559F56C01FE
:1044800042E0C40ED11CCA14DB0420F1AC014A196D
:104490005B09DA011296159780F06282738251836C
:1044A0004083D9016D937C93E114F10471F0D7013D
:1044B0001396FC93EE93129776CF22968C0F9D1F46
:1044C000F90191838083F301EFCFF093E106E0934C
:1044D000E00669CF4816590608F42C017D01D30186
:1044E0009ACFCB010E94A1207C01009749F0AE0138
:1044F000B8010E948822C8010E943D21870153CF44
:1045000010E000E050CF81E090E0F8940C94982205
:10451000FB01DC0102C001900D9241505040D8F7E0
:104520000895FB01DC0101900D920020E1F7089550
:1045300013E0CCE1D3E004C0FE010E949B20219651
:10454000CD31D107C9F7F894FFCF0BFF0000E20689
:1045500080000D0E131516191A1C232526292A2C46
:10456000323400000000DC053C05690529069A0587
:1045700078058C0500000000E40F3C053E133D1358
:104580004C08EA0BB80B4F0BCE0A0F0B90129E0D86
:10459000030D2F086009D109420A8D111511B610BB
:1045A0005B14CD0753656C656374204C6F63612E9B
:1045B0002E000D0A003E494355003E456D65726769
:1045C000656E6379003E54686561746572003E50A3
:1045D0006564696174726963730052464944204D91
:1045E00065646963616C20545241434B494E4720D6
:1045F00053595354454D00494355204D65646963F3
:10460000616C20446576696365730044657669630F
:10461000653A2056656E74696C61746F72207C20F7
:1046200049443A20313241334234004C61737420A2
:104630005365656E3A2031343A3335207C2053740B
:10464000617475733A20496E205573650044657630
:104650006963653A20446566696272696C6C61746D
:104660006F72207C2049443A20333443354436006D
:104670004C617374205365656E3A2031343A333798
:10468000207C205374617475733A20417661696CA3
:1046900061626C6500414C4552543A20496E667522
:1046A00073696F6E2050756D70202849443A203729
:1046B000384539463029204D495353494E4721004A
:1046C000456D657267656E637920526F6F6D20442A
:1046D000657669636573004465766963653A205061
:1046E0006F727461626C6520454347207C204944A9
:1046F0003A20343546324231004C617374205365A0
:10470000656E3A2031353A3230207C205374617422
:1047100075733A20496E2055736500446576696368
:10472000653A2053756374696F6E2050756D702003
:104730007C2049443A20363747334832004C617375
:1047400074205365656E3A2031353A3232207C2030
:104750005374617475733A20417661696C61626C5F
:104760006500414C4552543A204F787967656E2078
:1047700043796C696E646572202849443A2038395F
:104780004A344B3529204D495353494E4721004F58
:104790007065726174696E672054686561746572D2
:1047A0002044657669636573004465766963653A9C
:1047B00020416E6573746865736961204D6163683B
:1047C000696E65207C2049443A20353644374538A7
:1047D000004C617374205365656E3A2031333A3171
:1047E00030207C205374617475733A20496E2055D3
:1047F0007365004465766963653A2053757267692D
:1048000063616C204C616D70207C2049443A2032F9
:104810003341344235004C617374205365656E3A00
:104820002031333A3135207C205374617475733AEA
:1048300020417661696C61626C6500414C4552545F
:104840003A20456C656374726F6361757465727943
:1048500020556E6974202849443A2039304C364D31
:104860003729204D495353494E472100506564690B
:10487000617472696373205761726420446576695C
:10488000636573004465766963653A20496E6661C5
:104890006E74205761726D6572207C2049443A2005
:1048A000373858395931004C617374205365656E3F
:1048B0003A2031363A3035207C2053746174757358
:1048C0003A20496E20557365004465766963653A00
:1048D000204E6562756C697A6572207C2049443A85
:1048E00020363542374338004C6173742053656578
:1048F0006E3A2031363A3038207C2053746174751A
:10490000733A20417661696C61626C6500414C4587
:1049100052543A2050756C7365204F78696D6574F8
:104920006572202849443A203332503551362920C7
:104930004D495353494E4721004D65646963616C8D
:104940002044657669636520547261636B696E67A4
:10495000004C6F6164696E672E2E2E005365617284
:064960006368696E670048
:107E0000112484B714BE81FFF0D085E080938100F7
:107E100082E08093C00088E18093C10086E0809377
:107E2000C20080E18093C4008EE0C9D0259A86E02C
:107E300020E33CEF91E0309385002093840096BBD3
:107E4000B09BFECF1D9AA8958150A9F7CC24DD24C4
:107E500088248394B5E0AB2EA1E19A2EF3E0BF2EE7
:107E6000A2D0813461F49FD0082FAFD0023811F036
:107E7000013811F484E001C083E08DD089C08234E0
:107E800011F484E103C0853419F485E0A6D080C0E4
:107E9000853579F488D0E82EFF2485D0082F10E0AE
:107EA000102F00270E291F29000F111F8ED06801E7
:107EB0006FC0863521F484E090D080E0DECF843638
:107EC00009F040C070D06FD0082F6DD080E0C81688
:107ED00080E7D80618F4F601B7BEE895C0E0D1E017
:107EE00062D089930C17E1F7F0E0CF16F0E7DF06D8
:107EF00018F0F601B7BEE89568D007B600FCFDCFD4
:107F0000A601A0E0B1E02C9130E011968C91119780
:107F100090E0982F8827822B932B1296FA010C0160
:107F200087BEE89511244E5F5F4FF1E0A038BF0790
:107F300051F7F601A7BEE89507B600FCFDCF97BE46
:107F4000E89526C08437B1F42ED02DD0F82E2BD052
:107F50003CD0F601EF2C8F010F5F1F4F84911BD097
:107F6000EA94F801C1F70894C11CD11CFA94CF0C13
:107F7000D11C0EC0853739F428D08EE10CD085E9AC
:107F80000AD08FE07ACF813511F488E018D01DD067
:107F900080E101D065CF982F8091C00085FFFCCF94
:107FA0009093C60008958091C00087FFFCCF809118
:107FB000C00084FD01C0A8958091C6000895E0E648
:107FC000F0E098E1908380830895EDDF803219F02E
:107FD00088E0F5DFFFCF84E1DECF1F93182FE3DFCA
:107FE0001150E9F7F2DF1F91089580E0E8DFEE27F6
:047FF000FF270994CA
:027FFE00040479
:00000001FF
